{
  "contractName": "Archive",
  "abi": [
    {
      "inputs": [
        {
          "internalType": "address",
          "name": "",
          "type": "address"
        },
        {
          "internalType": "string",
          "name": "",
          "type": "string"
        }
      ],
      "name": "certificates",
      "outputs": [
        {
          "internalType": "string",
          "name": "userName",
          "type": "string"
        },
        {
          "internalType": "string",
          "name": "id",
          "type": "string"
        },
        {
          "internalType": "string",
          "name": "courseName",
          "type": "string"
        },
        {
          "internalType": "string",
          "name": "issuingAuthority",
          "type": "string"
        },
        {
          "internalType": "string",
          "name": "issueDate",
          "type": "string"
        },
        {
          "internalType": "address",
          "name": "user",
          "type": "address"
        },
        {
          "internalType": "bool",
          "name": "isAdded",
          "type": "bool"
        }
      ],
      "stateMutability": "view",
      "type": "function",
      "constant": true
    },
    {
      "inputs": [
        {
          "internalType": "string",
          "name": "_userName",
          "type": "string"
        },
        {
          "internalType": "string",
          "name": "_id",
          "type": "string"
        },
        {
          "internalType": "string",
          "name": "_courseName",
          "type": "string"
        },
        {
          "internalType": "string",
          "name": "_issuingAuthority",
          "type": "string"
        },
        {
          "internalType": "string",
          "name": "_issueDate",
          "type": "string"
        },
        {
          "internalType": "address",
          "name": "_user",
          "type": "address"
        }
      ],
      "name": "addCertificate",
      "outputs": [],
      "stateMutability": "nonpayable",
      "type": "function"
    },
    {
      "inputs": [
        {
          "internalType": "address",
          "name": "_user",
          "type": "address"
        },
        {
          "internalType": "string",
          "name": "_id",
          "type": "string"
        }
      ],
      "name": "getCertificate",
      "outputs": [
        {
          "internalType": "string",
          "name": "",
          "type": "string"
        },
        {
          "internalType": "string",
          "name": "",
          "type": "string"
        },
        {
          "internalType": "string",
          "name": "",
          "type": "string"
        },
        {
          "internalType": "string",
          "name": "",
          "type": "string"
        }
      ],
      "stateMutability": "view",
      "type": "function",
      "constant": true
    }
  ],
  "bytecode": "0x608060405234801561001057600080fd5b50611592806100206000396000f3fe608060405234801561001057600080fd5b50600436106100415760003560e01c806326bf0f031461004657806363e7e85b14610079578063c3bac0c2146100af575b600080fd5b610060600480360381019061005b9190610d14565b6100cb565b6040516100709493929190610def565b60405180910390f35b610093600480360381019061008e9190610d14565b610539565b6040516100a69796959493929190610e7a565b60405180910390f35b6100c960048036038101906100c49190610f0c565b610873565b005b606080606080600073ffffffffffffffffffffffffffffffffffffffff168673ffffffffffffffffffffffffffffffffffffffff1603610140576040517f08c379a000000000000000000000000000000000000000000000000000000000815260040161013790611071565b60405180910390fd5b6000855103610184576040517f08c379a000000000000000000000000000000000000000000000000000000000815260040161017b90611103565b60405180910390fd5b6000808773ffffffffffffffffffffffffffffffffffffffff1673ffffffffffffffffffffffffffffffffffffffff168152602001908152602001600020856040516101d0919061115f565b90815260200160405180910390206000016000808873ffffffffffffffffffffffffffffffffffffffff1673ffffffffffffffffffffffffffffffffffffffff1681526020019081526020016000208660405161022d919061115f565b90815260200160405180910390206003016000808973ffffffffffffffffffffffffffffffffffffffff1673ffffffffffffffffffffffffffffffffffffffff1681526020019081526020016000208760405161028a919061115f565b90815260200160405180910390206002016000808a73ffffffffffffffffffffffffffffffffffffffff1673ffffffffffffffffffffffffffffffffffffffff168152602001908152602001600020886040516102e7919061115f565b9081526020016040518091039020600401838054610304906111a5565b80601f0160208091040260200160405190810160405280929190818152602001828054610330906111a5565b801561037d5780601f106103525761010080835404028352916020019161037d565b820191906000526020600020905b81548152906001019060200180831161036057829003601f168201915b50505050509350828054610390906111a5565b80601f01602080910402602001604051908101604052809291908181526020018280546103bc906111a5565b80156104095780601f106103de57610100808354040283529160200191610409565b820191906000526020600020905b8154815290600101906020018083116103ec57829003601f168201915b5050505050925081805461041c906111a5565b80601f0160208091040260200160405190810160405280929190818152602001828054610448906111a5565b80156104955780601f1061046a57610100808354040283529160200191610495565b820191906000526020600020905b81548152906001019060200180831161047857829003601f168201915b505050505091508080546104a8906111a5565b80601f01602080910402602001604051908101604052809291908181526020018280546104d4906111a5565b80156105215780601f106104f657610100808354040283529160200191610521565b820191906000526020600020905b81548152906001019060200180831161050457829003601f168201915b50505050509050935093509350935092959194509250565b6000602052816000526040600020818051602081018201805184825260208301602085012081835280955050505050506000915091505080600001805461057f906111a5565b80601f01602080910402602001604051908101604052809291908181526020018280546105ab906111a5565b80156105f85780601f106105cd576101008083540402835291602001916105f8565b820191906000526020600020905b8154815290600101906020018083116105db57829003601f168201915b50505050509080600101805461060d906111a5565b80601f0160208091040260200160405190810160405280929190818152602001828054610639906111a5565b80156106865780601f1061065b57610100808354040283529160200191610686565b820191906000526020600020905b81548152906001019060200180831161066957829003601f168201915b50505050509080600201805461069b906111a5565b80601f01602080910402602001604051908101604052809291908181526020018280546106c7906111a5565b80156107145780601f106106e957610100808354040283529160200191610714565b820191906000526020600020905b8154815290600101906020018083116106f757829003601f168201915b505050505090806003018054610729906111a5565b80601f0160208091040260200160405190810160405280929190818152602001828054610755906111a5565b80156107a25780601f10610777576101008083540402835291602001916107a2565b820191906000526020600020905b81548152906001019060200180831161078557829003601f168201915b5050505050908060040180546107b7906111a5565b80601f01602080910402602001604051908101604052809291908181526020018280546107e3906111a5565b80156108305780601f1061080557610100808354040283529160200191610830565b820191906000526020600020905b81548152906001019060200180831161081357829003601f168201915b5050505050908060050160009054906101000a900473ffffffffffffffffffffffffffffffffffffffff16908060050160149054906101000a900460ff16905087565b600015156000808373ffffffffffffffffffffffffffffffffffffffff1673ffffffffffffffffffffffffffffffffffffffff168152602001908152602001600020866040516108c3919061115f565b908152602001604051809103902060050160149054906101000a900460ff16151514610924576040517f08c379a000000000000000000000000000000000000000000000000000000000815260040161091b90611248565b60405180910390fd5b60008060008373ffffffffffffffffffffffffffffffffffffffff1673ffffffffffffffffffffffffffffffffffffffff16815260200190815260200160002086604051610972919061115f565b9081526020016040518091039020600101805461098e906111a5565b9050146109d0576040517f08c379a00000000000000000000000000000000000000000000000000000000081526004016109c7906112b4565b60405180910390fd5b60006040518060e001604052808881526020018781526020018681526020018581526020018481526020018373ffffffffffffffffffffffffffffffffffffffff168152602001600115158152509050806000808473ffffffffffffffffffffffffffffffffffffffff1673ffffffffffffffffffffffffffffffffffffffff16815260200190815260200160002087604051610a6d919061115f565b90815260200160405180910390206000820151816000019081610a90919061148a565b506020820151816001019081610aa6919061148a565b506040820151816002019081610abc919061148a565b506060820151816003019081610ad2919061148a565b506080820151816004019081610ae8919061148a565b5060a08201518160050160006101000a81548173ffffffffffffffffffffffffffffffffffffffff021916908373ffffffffffffffffffffffffffffffffffffffff16021790555060c08201518160050160146101000a81548160ff02191690831515021790555090505050505050505050565b6000604051905090565b600080fd5b600080fd5b600073ffffffffffffffffffffffffffffffffffffffff82169050919050565b6000610b9b82610b70565b9050919050565b610bab81610b90565b8114610bb657600080fd5b50565b600081359050610bc881610ba2565b92915050565b600080fd5b600080fd5b6000601f19601f8301169050919050565b7f4e487b7100000000000000000000000000000000000000000000000000000000600052604160045260246000fd5b610c2182610bd8565b810181811067ffffffffffffffff82111715610c4057610c3f610be9565b5b80604052505050565b6000610c53610b5c565b9050610c5f8282610c18565b919050565b600067ffffffffffffffff821115610c7f57610c7e610be9565b5b610c8882610bd8565b9050602081019050919050565b82818337600083830152505050565b6000610cb7610cb284610c64565b610c49565b905082815260208101848484011115610cd357610cd2610bd3565b5b610cde848285610c95565b509392505050565b600082601f830112610cfb57610cfa610bce565b5b8135610d0b848260208601610ca4565b91505092915050565b60008060408385031215610d2b57610d2a610b66565b5b6000610d3985828601610bb9565b925050602083013567ffffffffffffffff811115610d5a57610d59610b6b565b5b610d6685828601610ce6565b9150509250929050565b600081519050919050565b600082825260208201905092915050565b60005b83811015610daa578082015181840152602081019050610d8f565b60008484015250505050565b6000610dc182610d70565b610dcb8185610d7b565b9350610ddb818560208601610d8c565b610de481610bd8565b840191505092915050565b60006080820190508181036000830152610e098187610db6565b90508181036020830152610e1d8186610db6565b90508181036040830152610e318185610db6565b90508181036060830152610e458184610db6565b905095945050505050565b610e5981610b90565b82525050565b60008115159050919050565b610e7481610e5f565b82525050565b600060e0820190508181036000830152610e94818a610db6565b90508181036020830152610ea88189610db6565b90508181036040830152610ebc8188610db6565b90508181036060830152610ed08187610db6565b90508181036080830152610ee48186610db6565b9050610ef360a0830185610e50565b610f0060c0830184610e6b565b98975050505050505050565b60008060008060008060c08789031215610f2957610f28610b66565b5b600087013567ffffffffffffffff811115610f4757610f46610b6b565b5b610f5389828a01610ce6565b965050602087013567ffffffffffffffff811115610f7457610f73610b6b565b5b610f8089828a01610ce6565b955050604087013567ffffffffffffffff811115610fa157610fa0610b6b565b5b610fad89828a01610ce6565b945050606087013567ffffffffffffffff811115610fce57610fcd610b6b565b5b610fda89828a01610ce6565b935050608087013567ffffffffffffffff811115610ffb57610ffa610b6b565b5b61100789828a01610ce6565b92505060a061101889828a01610bb9565b9150509295509295509295565b7f557365722061646472657373206d757374206e6f7420626520656d7074790000600082015250565b600061105b601e83610d7b565b915061106682611025565b602082019050919050565b6000602082019050818103600083015261108a8161104e565b9050919050565b7f4365727469666963617465206964206d757374206e6f7420626520656d70747960008201527f2e00000000000000000000000000000000000000000000000000000000000000602082015250565b60006110ed602183610d7b565b91506110f882611091565b604082019050919050565b6000602082019050818103600083015261111c816110e0565b9050919050565b600081905092915050565b600061113982610d70565b6111438185611123565b9350611153818560208601610d8c565b80840191505092915050565b600061116b828461112e565b915081905092915050565b7f4e487b7100000000000000000000000000000000000000000000000000000000600052602260045260246000fd5b600060028204905060018216806111bd57607f821691505b6020821081036111d0576111cf611176565b5b50919050565b7f4365727469666963617465206d757374206e6f7420626520616c72656164792060008201527f61646465642e0000000000000000000000000000000000000000000000000000602082015250565b6000611232602683610d7b565b915061123d826111d6565b604082019050919050565b6000602082019050818103600083015261126181611225565b9050919050565b7f4365727469666963617465206964206d75737420626520656d7074792e000000600082015250565b600061129e601d83610d7b565b91506112a982611268565b602082019050919050565b600060208201905081810360008301526112cd81611291565b9050919050565b60008190508160005260206000209050919050565b60006020601f8301049050919050565b600082821b905092915050565b6000600883026113367fffffffffffffffffffffffffffffffffffffffffffffffffffffffffffffffff826112f9565b61134086836112f9565b95508019841693508086168417925050509392505050565b6000819050919050565b6000819050919050565b600061138761138261137d84611358565b611362565b611358565b9050919050565b6000819050919050565b6113a18361136c565b6113b56113ad8261138e565b848454611306565b825550505050565b600090565b6113ca6113bd565b6113d5818484611398565b505050565b5b818110156113f9576113ee6000826113c2565b6001810190506113db565b5050565b601f82111561143e5761140f816112d4565b611418846112e9565b81016020851015611427578190505b61143b611433856112e9565b8301826113da565b50505b505050565b600082821c905092915050565b600061146160001984600802611443565b1980831691505092915050565b600061147a8383611450565b9150826002028217905092915050565b61149382610d70565b67ffffffffffffffff8111156114ac576114ab610be9565b5b6114b682546111a5565b6114c18282856113fd565b600060209050601f8311600181146114f457600084156114e2578287015190505b6114ec858261146e565b865550611554565b601f198416611502866112d4565b60005b8281101561152a57848901518255600182019150602085019450602081019050611505565b868310156115475784890151611543601f891682611450565b8355505b6001600288020188555050505b50505050505056fea2646970667358221220add883ea23af4fc81755fce6c0e203d66f13a2d34906a9e1aa39a67ad130033c64736f6c63430008130033",
  "immutableReferences": {},
  "source": "// SPDX-License-Identifier: MIT\r\npragma solidity ^0.8.19;\r\n\r\ncontract Archive {\r\n    struct Cert {\r\n        string userName;\r\n        string id;\r\n        string courseName;\r\n        string issuingAuthority;\r\n        string issueDate;\r\n        address user;\r\n        bool isAdded;\r\n    }\r\n\r\n    /** Mapping for certificates */\r\n    mapping (address => mapping(string => Cert)) public certificates;\r\n\r\n    /** Public functions */\r\n    function addCertificate(\r\n        string memory _userName,\r\n        string memory _id,\r\n        string memory _courseName,\r\n        string memory _issuingAuthority,\r\n        string memory _issueDate,\r\n        address _user\r\n    ) public {\r\n        require(\r\n            certificates[_user][_id].isAdded == false,\r\n            \"Certificate must not be already added.\"\r\n        );\r\n\r\n        require(\r\n            bytes(certificates[_user][_id].id).length == 0,\r\n            \"Certificate id must be empty.\"\r\n        );\r\n\r\n        Cert memory cert = Cert({\r\n            userName: _userName,\r\n            id: _id,\r\n            courseName: _courseName,\r\n            issuingAuthority: _issuingAuthority,\r\n            issueDate: _issueDate,\r\n            user: _user,\r\n            isAdded: true\r\n        });\r\n\r\n        certificates[_user][_id] = cert;\r\n    }\r\n\r\n    function getCertificate(address _user, string memory _id)\r\n        public\r\n        view\r\n        returns(string memory, string memory, string memory, string memory) {\r\n            require(\r\n                _user != address(0),\r\n                \"User address must not be empty\"\r\n            );\r\n            require(\r\n                bytes(_id).length != 0,\r\n                \"Certificate id must not be empty.\"\r\n            );\r\n\r\n            return (\r\n                certificates[_user][_id].userName,\r\n                certificates[_user][_id].issuingAuthority,\r\n                certificates[_user][_id].courseName,\r\n                certificates[_user][_id].issueDate\r\n            );\r\n    }\r\n}\r\n",
  "sourcePath": "A:\\Projects\\dltassignments\\contracts\\Archive.sol",
  "compiler": {
    "name": "solc",
    "version": "0.8.19+commit.7dd6d404.Emscripten.clang"
  },
  "schemaVersion": "3.4.16",
  "updatedAt": "2024-02-23T19:45:23.969Z",
  "networkType": "ethereum",
  "devdoc": {
    "kind": "dev",
    "methods": {},
    "version": 1
  },
  "userdoc": {
    "kind": "user",
    "methods": {
      "addCertificate(string,string,string,string,string,address)": {
        "notice": "Public functions "
      },
      "certificates(address,string)": {
        "notice": "Mapping for certificates "
      }
    },
    "version": 1
  }
}